:020000021000EC
:10F000000C9446F80C9465F80C9465F80C9465F82B
:10F010000C9465F80C9465F80C9465F80C9465F8FC
:10F020000C9465F80C9465F80C9465F80C9465F8EC
:10F030000C9465F80C9465F80C9465F80C9465F8DC
:10F040000C9465F80C9465F80C9465F80C9465F8CC
:10F050000C9465F80C9465F80C9465F80C9465F8BC
:10F060000C9465F80C9465F80C9465F80C9465F8AC
:10F070000C9465F80C9465F80C9465F80C9465F89C
:10F080000C9465F80C9465F80C9465F811241FBE77
:10F09000CFEFD0E1DEBFCDBF11E0A0E0B1E0ECE604
:10F0A000F9EF01E00BBF02C007900D92A230B1074B
:10F0B000D9F722E0A2E0B1E001C01D92AD30B20765
:10F0C000E1F70E946BF90C94B4FC0C9400F8909159
:10F0D0000501913019F0923029F008955D9BFECF23
:10F0E0008CB9089590919B0095FFFCCF80939C0074
:10F0F0000895CF93982F8595859585958595805D05
:10F100009F709A3044F4C0E3C90F0E9467F88C2FB7
:10F11000CF910C9467F8C7E5C90F0E9467F88C2F50
:10F12000CF910C9467F8CF92DF92EF92FF9280918B
:10F130000501813061F1823031F080E0FF90EF9085
:10F14000DF90CF900895C12CD12C760180919B0047
:10F1500087FD16C08FEFC81AD80AE80AF80A81E4BA
:10F16000C81682E4D8068FE0E806F10478F3E0914F
:10F170000201F0910301099580919B0087FFEACF7E
:10F1800080919C00FF90EF90DF90CF900895C12C6C
:10F19000D12C76015F9914C08FEFC81AD80AE80AFB
:10F1A000F80A81E4C81682E4D8068FE0E806F10484
:10F1B00088F3E0910201F091030109955F9BECCF88
:10F1C0008CB1FF90EF90DF90CF900895CF930E9485
:10F1D00093F8C82F0E9467F8C1364CF4C03324F06E
:10F1E00080ED8C0FCF9108958C2FCF91089589EAEF
:10F1F0008C0FCF910895CF930E94E6F8C82F0E94FC
:10F20000E6F890E1C99F800D1124CF9108952091D7
:10F210000501815060F0213059F02230D1F79091F2
:10F220009B0097FFFCCF90919C008150A0F7089520
:10F230005F9BFECF9CB1EDCFCF93C82F0E9493F878
:10F24000803279F0809104018F5F809304018530D2
:10F2500011F0CF910895E0910201F0910301CF9157
:10F26000099484E10E9467F88C2F0E9467F880E17E
:10F27000CF910C9467F80E9493F8803269F08091E6
:10F2800004018F5F80930401853009F00895E091B7
:10F290000201F0910301099484E10E9467F880E182
:10F2A0000C9467F815C0C79A2FEF31EE94E0215007
:10F2B00030409040E1F700C00000C7982FEF31EEDA
:10F2C00094E0215030409040E1F700C000008150B0
:10F2D0008111E9CF08950000809161008F778093BC
:10F2E0006100809161008F7B80936100809162005A
:10F2F00080688093620080916200806480936200E5
:10F30000079995C081E080930501E0E0F0E0E49189
:10F31000EF3F09F47AC0882309F470C0813009F402
:10F3200079C0823069F487E0809399001092980048
:10F3300010929B0086E080939D0088E180939A0064
:10F34000BF9A809105018823B1F0C79A2FEF31EE63
:10F3500094E0215030409040E1F700C00000C79891
:10F36000EFEFF1EE24E0E150F0402040E1F700C083
:10F370000000815051F7DD24D3940E9493F880332C
:10F38000D1F1813309F458C0803409F475C0813457
:10F3900009F47CC0823409F48BC0853409F48EC032
:10F3A000982F9D7F903539F1813529F1853509F404
:10F3B0008BC0863509F493C0843609F499C084372C
:10F3C00009F405C1853709F460C1863709F46CC0BA
:10F3D000813209F488C1809104018F5F8093040118
:10F3E000853059F6E0910201F091030109950E94E0
:10F3F00093F8803331F60E943BF9BFCFE0910201D0
:10F40000F0910301099580910501811187CF81E079
:10F410008093050187E089B9109290001BB886E0BF
:10F420008093950088E18AB9809105017ACF069B87
:10F4300025C28091050169CF0E9493F8803259F668
:10F4400084E10E9467F881E40E9467F886E50E94E3
:10F4500067F882E50E9467F880E20E9467F889E415
:10F460000E9467F883E50E9467F880E50E9467F8CC
:10F4700080E10E9467F881CF0E9493F8863808F4F3
:10F48000BACF0E9493F80E943BF977CF0E9493F87D
:10F49000803809F420C1813809F421C1823809F487
:10F4A00066C1883909F406C180E00E941CF965CF65
:10F4B00084E10E9407F90E943BF95FCF85E00E943A
:10F4C00007F90E943BF959CF0E9493F880930601F7
:10F4D0000E9493F8809307010E943BF94ECF0E944F
:10F4E00093F8803309F4EAC083E00E9407F9DCCF87
:10F4F0000E9493F8809309020E9493F88093080277
:10F5000080910C028E7F80930C020E9493F88534C8
:10F5100029F480910C02816080930C028091080292
:10F5200090910902892BA1F078E0E72E71E0F72E87
:10F5300000E010E00E9493F8F70181937F010F5FD4
:10F540001F4F80910802909109020817190790F344
:10F550000E9493F8803209F03ECF90910C02892FDF
:10F56000817090FF12C18091060190910701880F70
:10F57000991F909307018093060120910802309112
:10F580000902232BE9F058E0E52E51E0F52E00E0CA
:10F5900010E0F70161917F010E94A7FC80910601B4
:10F5A00090910701019690930701809306010F5FE8
:10F5B0001F4F20910802309109020217130748F3E8
:10F5C00084E10E9467F880E10E9467F8D6CE0E942D
:10F5D00093F8809309020E9493F880930802809127
:10F5E00006019091070120910C0297FD3FC12D7FEC
:10F5F00020930C02880F991F9093070180930601B6
:10F600000E9493F8853409F4B6C080910C028E7F75
:10F6100080930C020E9493F8803209F0AECE84E110
:10F620000E9467F88091080290910902892B09F4E1
:10F630003DC000E010E0809106019091070116C0E6
:10F64000FC0184910E9467F8809106019091070166
:10F65000019690930701809306010F5F1F4F209141
:10F660000802309109020217130700F520910C02DD
:10F6700020FD6FC021FFE4CFA0E0B0E01196ABBF4A
:10F68000FC0187910E9467F8DFCF0E9493F88032D7
:10F6900009F0A1CE84E10E9467F88EE10E9467F82C
:10F6A00087E90E9467F882E00E9467F880E10E9483
:10F6B00067F863CE83E00E941CF95FCE0E9493F846
:10F6C0000E9493F8182F0E9493F8112309F459C04F
:10F6D000113009F4D7C082E00E941CF94ECE81E0BF
:10F6E0000E941CF94ACE0E9493F8813209F045CE5F
:10F6F0000E9493F8813209F040CEBF9AC7981092C9
:10F700000A028AE00E9467F88DE00E9467F88AE3A7
:10F710000E9467F880E20E9467F80E9493F8182F11
:10F720000E9467F8143709F4E9C0123709F4CFC012
:10F73000173709F4B4C0153709F4A8C0123609F414
:10F74000E4C01A36F1F6E0910201F0910301099547
:10F75000D8CF0E949FFC0E9467F88091060190918B
:10F7600007010196909307018093060176CF80E10F
:10F770000E941CF902CE80910C02816080930C02E1
:10F7800049CF8EE10E941CF9F8CD9091070197FDB9
:10F7900071C010920B028BBF8091060190910701FE
:10F7A000880F991F909307018093060180910802AA
:10F7B00080FF09C080910802909109020196909300
:10F7C000090280930802F894E199FECF1127E09195
:10F7D0000601F0910701C8E0D1E080910802909104
:10F7E0000902103091F40091680001700130D9F3E2
:10F7F00003E000936800E895009168000170013013
:10F80000D9F301E100936800E895099019900091FF
:10F81000680001700130D9F301E000936800E895B9
:10F820001395103898F0112700916800017001308D
:10F83000D9F305E000936800E89500916800017035
:10F840000130D9F301E100936800E8953296029700
:10F8500009F0C7CF103011F00296E5CF112484E1F2
:10F860000E9467F880E10E9467F887CD22602093AC
:10F870000C02C0CED0920B0281E08DCF82E080934B
:10F88000050143CD87E90E941CF977CD0E9493F8CA
:10F890000E9467F80E9493F80E9467F8F7CF0E94D1
:10F8A00093F80E9467F80E94FBF8182F0E94FBF85B
:10F8B000082F0E9493F80E9467F80E94FBF8E12F3E
:10F8C000F0E0FE2FEE27E00FF11D80831ACF0E949B
:10F8D00093F80E9467F80E94FBF8182F0E94FBF82B
:10F8E000082F8DE30E9467F8E12FF0E0FE2FEE274E
:10F8F000E00FF11D80810E9479F803CFB7991AC0FB
:10F90000C79A80E30E9467F8FCCE82E60E9467F8FF
:10F9100085E70E9467F883E70E9467F880E885BF63
:10F9200010926D0010926C00E0E0F1E1819130974F
:10F93000E9F7FACFC79881E30E9467F8E2CEE19930
:10F94000FECF9FBB8EBBE09A99278DB30895262FDB
:10F95000E199FECF9FBB8EBB2DBB0FB6F894E29A08
:0CF96000E19A0FBE01960895F894FFCFC5
:02F96C00800019
:040000031000F000F9
:00000001FF
